{
  "contractName": "Payments",
  "abi": [
    {
      "inputs": [],
      "payable": false,
      "stateMutability": "nonpayable",
      "type": "constructor"
    },
    {
      "anonymous": false,
      "inputs": [
        {
          "indexed": true,
          "internalType": "uint256",
          "name": "_candidateId",
          "type": "uint256"
        }
      ],
      "name": "votedEvent",
      "type": "event"
    },
    {
      "constant": true,
      "inputs": [
        {
          "internalType": "uint256",
          "name": "",
          "type": "uint256"
        }
      ],
      "name": "payments",
      "outputs": [
        {
          "internalType": "uint256",
          "name": "id",
          "type": "uint256"
        },
        {
          "internalType": "string",
          "name": "name",
          "type": "string"
        },
        {
          "internalType": "string",
          "name": "description",
          "type": "string"
        },
        {
          "internalType": "string",
          "name": "money",
          "type": "string"
        }
      ],
      "payable": false,
      "stateMutability": "view",
      "type": "function"
    },
    {
      "constant": true,
      "inputs": [],
      "name": "paymentsCount",
      "outputs": [
        {
          "internalType": "uint256",
          "name": "",
          "type": "uint256"
        }
      ],
      "payable": false,
      "stateMutability": "view",
      "type": "function"
    },
    {
      "constant": true,
      "inputs": [
        {
          "internalType": "address",
          "name": "",
          "type": "address"
        }
      ],
      "name": "voters",
      "outputs": [
        {
          "internalType": "bool",
          "name": "",
          "type": "bool"
        }
      ],
      "payable": false,
      "stateMutability": "view",
      "type": "function"
    }
  ],
  "bytecode": "0x608060405234801561001057600080fd5b506100c16040518060400160405280600781526020017f416476616e6365000000000000000000000000000000000000000000000000008152506040518060400160405280600f81526020017f41766476616e636520666f7220554900000000000000000000000000000000008152506040518060400160405280600581526020017f313530303000000000000000000000000000000000000000000000000000000081525061017660201b60201c565b6101716040518060400160405280600f81526020017f4261636b656e64207061796d656e7400000000000000000000000000000000008152506040518060400160405280601f81526020017f5061796d656e7420666f72206261636b656e6420646576656c6f706d656e74008152506040518060400160405280600581526020017f363030303000000000000000000000000000000000000000000000000000000081525061017660201b60201c565b6102ce565b60026000815480929190600101919050555060405180608001604052806002548152602001848152602001838152602001828152506001600060025481526020019081526020016000206000820151816000015560208201518160010190805190602001906101e6929190610229565b506040820151816002019080519060200190610203929190610229565b506060820151816003019080519060200190610220929190610229565b50905050505050565b828054600181600116156101000203166002900490600052602060002090601f016020900481019282601f1061026a57805160ff1916838001178555610298565b82800160010185558215610298579182015b8281111561029757825182559160200191906001019061027c565b5b5090506102a591906102a9565b5090565b6102cb91905b808211156102c75760008160009055506001016102af565b5090565b90565b610499806102dd6000396000f3fe608060405234801561001057600080fd5b50600436106100415760003560e01c806387d8178914610046578063a3ec138d146101cc578063aafab1e814610228575b600080fd5b6100726004803603602081101561005c57600080fd5b8101908080359060200190929190505050610246565b60405180858152602001806020018060200180602001848103845287818151815260200191508051906020019080838360005b838110156100c05780820151818401526020810190506100a5565b50505050905090810190601f1680156100ed5780820380516001836020036101000a031916815260200191505b50848103835286818151815260200191508051906020019080838360005b8381101561012657808201518184015260208101905061010b565b50505050905090810190601f1680156101535780820380516001836020036101000a031916815260200191505b50848103825285818151815260200191508051906020019080838360005b8381101561018c578082015181840152602081019050610171565b50505050905090810190601f1680156101b95780820380516001836020036101000a031916815260200191505b5097505050505050505060405180910390f35b61020e600480360360208110156101e257600080fd5b81019080803573ffffffffffffffffffffffffffffffffffffffff16906020019092919050505061043e565b604051808215151515815260200191505060405180910390f35b61023061045e565b6040518082815260200191505060405180910390f35b6001602052806000526040600020600091509050806000015490806001018054600181600116156101000203166002900480601f0160208091040260200160405190810160405280929190818152602001828054600181600116156101000203166002900480156102f85780601f106102cd576101008083540402835291602001916102f8565b820191906000526020600020905b8154815290600101906020018083116102db57829003601f168201915b505050505090806002018054600181600116156101000203166002900480601f0160208091040260200160405190810160405280929190818152602001828054600181600116156101000203166002900480156103965780601f1061036b57610100808354040283529160200191610396565b820191906000526020600020905b81548152906001019060200180831161037957829003601f168201915b505050505090806003018054600181600116156101000203166002900480601f0160208091040260200160405190810160405280929190818152602001828054600181600116156101000203166002900480156104345780601f1061040957610100808354040283529160200191610434565b820191906000526020600020905b81548152906001019060200180831161041757829003601f168201915b5050505050905084565b60006020528060005260406000206000915054906101000a900460ff1681565b6002548156fea265627a7a72315820f68f8a788d56c6b3c332dcd4b8f940e1af5dd649c87a186033f61b721730451864736f6c63430005100032",
  "source": "pragma solidity >=0.4.20;\r\n\r\ncontract Tasks {\r\n    // Model a Candidate\r\n    struct Task {\r\n        uint id;\r\n        string name;\r\n        string description;\r\n        string time;\r\n        string deadline;\r\n    }\r\n\r\n    // Store accounts that have voted\r\n    mapping(address => bool) public voters;\r\n    // Store Candidates\r\n    // Fetch Candidate\r\n    mapping(uint => Task) public tasks;\r\n    // Store Candidates Count\r\n    uint public tasksCount;\r\n\r\n    // voted event\r\n    event votedEvent (\r\n        uint indexed _candidateId\r\n    );\r\n\r\n    constructor() public{\r\n        addTask(\"UI Design\",\"Design robust and beautful UI for the application\",\"50\", \"27th April 2020\");\r\n        addTask(\"Tasks Implementation\",\"Implement taks feature for the app\",\"60\", \"10th May 2020\");\r\n    }\r\n\r\n    function addTask (string memory _name, string memory _description, string memory _time, string memory _deadline) private{\r\n        tasksCount ++;\r\n        tasks[tasksCount] = Task(tasksCount, _name, _description, _time, _deadline);\r\n    }\r\n\r\n}\r\n\r\ncontract Rewards {\r\n    // Model a Candidate\r\n    struct Reward {\r\n        uint id;\r\n        string name;\r\n        string description;\r\n        string money;\r\n    }\r\n\r\n    // Store accounts that have voted\r\n    mapping(address => bool) public voters;\r\n    // Store Candidates\r\n    // Fetch Candidate\r\n    mapping(uint => Reward) public rewards;\r\n    // Store Candidates Count\r\n    uint public rewardsCount;\r\n\r\n    // voted event\r\n    event votedEvent (\r\n        uint indexed _candidateId\r\n    );\r\n\r\n    constructor() public{\r\n        addReward(\"Early Bird\",\"Early completion of work\",\"5000\");\r\n        addReward(\"New improvement\",\"New Improvement added\",\"6000\");\r\n    }\r\n\r\n    function addReward (string memory _name, string memory _description, string memory _money) private{\r\n        rewardsCount ++;\r\n        rewards[rewardsCount] = Reward(rewardsCount, _name, _description, _money);\r\n    }\r\n\r\n}\r\n\r\npragma solidity >=0.4.20;\r\n\r\ncontract Payments {\r\n    // Model a Candidate\r\n    struct Payment {\r\n        uint id;\r\n        string name;\r\n        string description;\r\n        string money;\r\n    }\r\n\r\n    // Store accounts that have voted\r\n    mapping(address => bool) public voters;\r\n    // Store Candidates\r\n    // Fetch Candidate\r\n    mapping(uint => Payment) public payments;\r\n    // Store Candidates Count\r\n    uint public paymentsCount;\r\n\r\n    // voted event\r\n    event votedEvent (\r\n        uint indexed _candidateId\r\n    );\r\n\r\n    constructor() public{\r\n        addPayment(\"Advance\",\"Avdvance for UI\",\"15000\");\r\n        addPayment(\"Backend payment\",\"Payment for backend development\",\"60000\");\r\n    }\r\n\r\n    function addPayment (string memory _name, string memory _description, string memory _money) private{\r\n        paymentsCount ++;\r\n        payments[paymentsCount] = Payment(paymentsCount, _name, _description,  _money);\r\n    }\r\n\r\n}\r\n\r\n\r\n\r\n",
  "sourcePath": "C:\\Users\\User1\\Desktop\\dapp-backend\\contracts\\Tasks.sol",
  "compiler": {
    "name": "solc",
    "version": "0.5.16+commit.9c3226ce.Emscripten.clang"
  },
  "schemaVersion": "3.2.0",
  "updatedAt": "2020-06-05T18:05:22.841Z",
  "networkType": "ethereum",
  "devdoc": {
    "methods": {}
  },
  "userdoc": {
    "methods": {}
  }
}