{
  "contractName": "Tasks",
  "abi": [
    {
      "inputs": [],
      "payable": false,
      "stateMutability": "nonpayable",
      "type": "constructor"
    },
    {
      "anonymous": false,
      "inputs": [
        {
          "indexed": true,
          "internalType": "uint256",
          "name": "_candidateId",
          "type": "uint256"
        }
      ],
      "name": "votedEvent",
      "type": "event"
    },
    {
      "constant": true,
      "inputs": [
        {
          "internalType": "uint256",
          "name": "",
          "type": "uint256"
        }
      ],
      "name": "tasks",
      "outputs": [
        {
          "internalType": "uint256",
          "name": "id",
          "type": "uint256"
        },
        {
          "internalType": "string",
          "name": "name",
          "type": "string"
        },
        {
          "internalType": "string",
          "name": "description",
          "type": "string"
        },
        {
          "internalType": "string",
          "name": "time",
          "type": "string"
        },
        {
          "internalType": "string",
          "name": "deadline",
          "type": "string"
        }
      ],
      "payable": false,
      "stateMutability": "view",
      "type": "function"
    },
    {
      "constant": true,
      "inputs": [],
      "name": "tasksCount",
      "outputs": [
        {
          "internalType": "uint256",
          "name": "",
          "type": "uint256"
        }
      ],
      "payable": false,
      "stateMutability": "view",
      "type": "function"
    },
    {
      "constant": true,
      "inputs": [
        {
          "internalType": "address",
          "name": "",
          "type": "address"
        }
      ],
      "name": "voters",
      "outputs": [
        {
          "internalType": "bool",
          "name": "",
          "type": "bool"
        }
      ],
      "payable": false,
      "stateMutability": "view",
      "type": "function"
    }
  ],
  "bytecode": "0x608060405234801561001057600080fd5b506100da6040518060400160405280600981526020017f55492044657369676e00000000000000000000000000000000000000000000008152506040518060600160405280603181526020016108f8603191396040518060400160405280600281526020017f35300000000000000000000000000000000000000000000000000000000000008152506040518060400160405280600f81526020017f3237746820417072696c203230323000000000000000000000000000000000008152506101a860201b60201c565b6101a36040518060400160405280601481526020017f5461736b7320496d706c656d656e746174696f6e0000000000000000000000008152506040518060600160405280602281526020016108d6602291396040518060400160405280600281526020017f36300000000000000000000000000000000000000000000000000000000000008152506040518060400160405280600d81526020017f31307468204d61792032303230000000000000000000000000000000000000008152506101a860201b60201c565b610324565b6002600081548092919060010191905055506040518060a0016040528060025481526020018581526020018481526020018381526020018281525060016000600254815260200190815260200160002060008201518160000155602082015181600101908051906020019061021e92919061027f565b50604082015181600201908051906020019061023b92919061027f565b50606082015181600301908051906020019061025892919061027f565b50608082015181600401908051906020019061027592919061027f565b5090505050505050565b828054600181600116156101000203166002900490600052602060002090601f016020900481019282601f106102c057805160ff19168380011785556102ee565b828001600101855582156102ee579182015b828111156102ed5782518255916020019190600101906102d2565b5b5090506102fb91906102ff565b5090565b61032191905b8082111561031d576000816000905550600101610305565b5090565b90565b6105a3806103336000396000f3fe608060405234801561001057600080fd5b50600436106100415760003560e01c80638d97767214610046578063a3ec138d14610238578063bb6a0f0714610294575b600080fd5b6100726004803603602081101561005c57600080fd5b81019080803590602001909291905050506102b2565b6040518086815260200180602001806020018060200180602001858103855289818151815260200191508051906020019080838360005b838110156100c45780820151818401526020810190506100a9565b50505050905090810190601f1680156100f15780820380516001836020036101000a031916815260200191505b50858103845288818151815260200191508051906020019080838360005b8381101561012a57808201518184015260208101905061010f565b50505050905090810190601f1680156101575780820380516001836020036101000a031916815260200191505b50858103835287818151815260200191508051906020019080838360005b83811015610190578082015181840152602081019050610175565b50505050905090810190601f1680156101bd5780820380516001836020036101000a031916815260200191505b50858103825286818151815260200191508051906020019080838360005b838110156101f65780820151818401526020810190506101db565b50505050905090810190601f1680156102235780820380516001836020036101000a031916815260200191505b50995050505050505050505060405180910390f35b61027a6004803603602081101561024e57600080fd5b81019080803573ffffffffffffffffffffffffffffffffffffffff169060200190929190505050610548565b604051808215151515815260200191505060405180910390f35b61029c610568565b6040518082815260200191505060405180910390f35b6001602052806000526040600020600091509050806000015490806001018054600181600116156101000203166002900480601f0160208091040260200160405190810160405280929190818152602001828054600181600116156101000203166002900480156103645780601f1061033957610100808354040283529160200191610364565b820191906000526020600020905b81548152906001019060200180831161034757829003601f168201915b505050505090806002018054600181600116156101000203166002900480601f0160208091040260200160405190810160405280929190818152602001828054600181600116156101000203166002900480156104025780601f106103d757610100808354040283529160200191610402565b820191906000526020600020905b8154815290600101906020018083116103e557829003601f168201915b505050505090806003018054600181600116156101000203166002900480601f0160208091040260200160405190810160405280929190818152602001828054600181600116156101000203166002900480156104a05780601f10610475576101008083540402835291602001916104a0565b820191906000526020600020905b81548152906001019060200180831161048357829003601f168201915b505050505090806004018054600181600116156101000203166002900480601f01602080910402602001604051908101604052809291908181526020018280546001816001161561010002031660029004801561053e5780601f106105135761010080835404028352916020019161053e565b820191906000526020600020905b81548152906001019060200180831161052157829003601f168201915b5050505050905085565b60006020528060005260406000206000915054906101000a900460ff1681565b6002548156fea265627a7a72315820998a09531110bd15b37dd0f1ff63079256877d64b4fb76f0abdc587299ac4a2b64736f6c63430005100032496d706c656d656e742074616b73206665617475726520666f72207468652061707044657369676e20726f6275737420616e6420626561757466756c20554920666f7220746865206170706c69636174696f6e",
  "source": "pragma solidity >=0.4.20;\r\n\r\ncontract Tasks {\r\n    // Model a Candidate\r\n    struct Task {\r\n        uint id;\r\n        string name;\r\n        string description;\r\n        string time;\r\n        string deadline;\r\n    }\r\n\r\n    // Store accounts that have voted\r\n    mapping(address => bool) public voters;\r\n    // Store Candidates\r\n    // Fetch Candidate\r\n    mapping(uint => Task) public tasks;\r\n    // Store Candidates Count\r\n    uint public tasksCount;\r\n\r\n    // voted event\r\n    event votedEvent (\r\n        uint indexed _candidateId\r\n    );\r\n\r\n    constructor() public{\r\n        addTask(\"UI Design\",\"Design robust and beautful UI for the application\",\"50\", \"27th April 2020\");\r\n        addTask(\"Tasks Implementation\",\"Implement taks feature for the app\",\"60\", \"10th May 2020\");\r\n    }\r\n\r\n    function addTask (string memory _name, string memory _description, string memory _time, string memory _deadline) private{\r\n        tasksCount ++;\r\n        tasks[tasksCount] = Task(tasksCount, _name, _description, _time, _deadline);\r\n    }\r\n\r\n}\r\n\r\n",
  "sourcePath": "C:\\Users\\User1\\Desktop\\dapp-backend\\contracts\\Tasks.sol",
  "compiler": {
    "name": "solc",
    "version": "0.5.16+commit.9c3226ce.Emscripten.clang"
  },
  "schemaVersion": "3.2.0",
  "updatedAt": "2020-06-05T18:12:29.612Z",
  "networkType": "ethereum",
  "devdoc": {
    "methods": {}
  },
  "userdoc": {
    "methods": {}
  }
}